{
  "contractName": "SecurityQuestionContract",
  "abi": [
    {
      "anonymous": false,
      "inputs": [
        {
          "indexed": false,
          "internalType": "address",
          "name": "group",
          "type": "address"
        },
        {
          "indexed": false,
          "internalType": "address",
          "name": "sender",
          "type": "address"
        },
        {
          "indexed": false,
          "internalType": "bytes",
          "name": "message",
          "type": "bytes"
        }
      ],
      "name": "Broadcast",
      "type": "event"
    },
    {
      "anonymous": false,
      "inputs": [
        {
          "indexed": false,
          "internalType": "address",
          "name": "group",
          "type": "address"
        },
        {
          "indexed": false,
          "internalType": "address[]",
          "name": "members",
          "type": "address[]"
        },
        {
          "indexed": false,
          "internalType": "uint256[2]",
          "name": "c_0",
          "type": "uint256[2]"
        },
        {
          "indexed": false,
          "internalType": "uint256[2]",
          "name": "c_1",
          "type": "uint256[2]"
        },
        {
          "indexed": false,
          "internalType": "uint256[2]",
          "name": "d_0",
          "type": "uint256[2]"
        },
        {
          "indexed": false,
          "internalType": "uint256[2]",
          "name": "d_1",
          "type": "uint256[2]"
        }
      ],
      "name": "NewGroup",
      "type": "event"
    },
    {
      "anonymous": false,
      "inputs": [
        {
          "indexed": false,
          "internalType": "address",
          "name": "group",
          "type": "address"
        },
        {
          "indexed": false,
          "internalType": "bytes",
          "name": "id",
          "type": "bytes"
        },
        {
          "indexed": false,
          "internalType": "uint256[2][]",
          "name": "c0",
          "type": "uint256[2][]"
        },
        {
          "indexed": false,
          "internalType": "uint256[2][]",
          "name": "c1",
          "type": "uint256[2][]"
        }
      ],
      "name": "NewQuery",
      "type": "event"
    },
    {
      "anonymous": false,
      "inputs": [
        {
          "indexed": false,
          "internalType": "address",
          "name": "group",
          "type": "address"
        },
        {
          "indexed": false,
          "internalType": "bytes",
          "name": "id",
          "type": "bytes"
        },
        {
          "indexed": false,
          "internalType": "uint256[2][]",
          "name": "a1",
          "type": "uint256[2][]"
        },
        {
          "indexed": false,
          "internalType": "uint256[2][]",
          "name": "b1",
          "type": "uint256[2][]"
        },
        {
          "indexed": false,
          "internalType": "uint256[2][]",
          "name": "a2",
          "type": "uint256[2][]"
        },
        {
          "indexed": false,
          "internalType": "uint256[2][]",
          "name": "b2",
          "type": "uint256[2][]"
        }
      ],
      "name": "NewQueryNIZKPsP1",
      "type": "event"
    },
    {
      "anonymous": false,
      "inputs": [
        {
          "indexed": false,
          "internalType": "address",
          "name": "group",
          "type": "address"
        },
        {
          "indexed": false,
          "internalType": "bytes",
          "name": "id",
          "type": "bytes"
        },
        {
          "indexed": false,
          "internalType": "uint256[]",
          "name": "d_1",
          "type": "uint256[]"
        },
        {
          "indexed": false,
          "internalType": "uint256[]",
          "name": "d_2",
          "type": "uint256[]"
        },
        {
          "indexed": false,
          "internalType": "uint256[]",
          "name": "r_1",
          "type": "uint256[]"
        },
        {
          "indexed": false,
          "internalType": "uint256[]",
          "name": "r_2",
          "type": "uint256[]"
        }
      ],
      "name": "NewQueryNIZKPsP2",
      "type": "event"
    },
    {
      "anonymous": false,
      "inputs": [
        {
          "indexed": false,
          "internalType": "address",
          "name": "group",
          "type": "address"
        },
        {
          "indexed": false,
          "internalType": "bytes",
          "name": "id",
          "type": "bytes"
        }
      ],
      "name": "VerifiableAttempt",
      "type": "event"
    },
    {
      "anonymous": false,
      "inputs": [
        {
          "indexed": false,
          "internalType": "address",
          "name": "group",
          "type": "address"
        },
        {
          "indexed": false,
          "internalType": "bytes",
          "name": "id",
          "type": "bytes"
        },
        {
          "indexed": false,
          "internalType": "bool",
          "name": "success",
          "type": "bool"
        }
      ],
      "name": "VerificationResult",
      "type": "event"
    },
    {
      "inputs": [
        {
          "internalType": "uint256",
          "name": "u",
          "type": "uint256"
        }
      ],
      "name": "inverseMod",
      "outputs": [
        {
          "internalType": "uint256",
          "name": "inversed",
          "type": "uint256"
        }
      ],
      "stateMutability": "pure",
      "type": "function",
      "constant": true
    },
    {
      "inputs": [
        {
          "internalType": "address[]",
          "name": "members",
          "type": "address[]"
        },
        {
          "internalType": "uint256",
          "name": "threshold",
          "type": "uint256"
        },
        {
          "internalType": "uint256[2]",
          "name": "c_0",
          "type": "uint256[2]"
        },
        {
          "internalType": "uint256[2]",
          "name": "c_1",
          "type": "uint256[2]"
        },
        {
          "internalType": "uint256[2]",
          "name": "d_0",
          "type": "uint256[2]"
        },
        {
          "internalType": "uint256[2]",
          "name": "d_1",
          "type": "uint256[2]"
        }
      ],
      "name": "createCommittee",
      "outputs": [],
      "stateMutability": "payable",
      "type": "function",
      "payable": true
    },
    {
      "inputs": [
        {
          "internalType": "address",
          "name": "group",
          "type": "address"
        },
        {
          "internalType": "uint256[2]",
          "name": "coeffs",
          "type": "uint256[2]"
        }
      ],
      "name": "addKeyForMember",
      "outputs": [
        {
          "internalType": "bool",
          "name": "",
          "type": "bool"
        }
      ],
      "stateMutability": "payable",
      "type": "function",
      "payable": true
    },
    {
      "inputs": [
        {
          "internalType": "bytes",
          "name": "id",
          "type": "bytes"
        },
        {
          "internalType": "uint256[2][]",
          "name": "c0",
          "type": "uint256[2][]"
        },
        {
          "internalType": "uint256[2][]",
          "name": "c1",
          "type": "uint256[2][]"
        },
        {
          "internalType": "uint256[2]",
          "name": "c_0_tilde",
          "type": "uint256[2]"
        },
        {
          "internalType": "uint256[2]",
          "name": "c_1_tilde",
          "type": "uint256[2]"
        },
        {
          "internalType": "uint256[2][2]",
          "name": "k",
          "type": "uint256[2][2]"
        }
      ],
      "name": "query",
      "outputs": [],
      "stateMutability": "payable",
      "type": "function",
      "payable": true
    },
    {
      "inputs": [
        {
          "internalType": "address",
          "name": "group",
          "type": "address"
        },
        {
          "internalType": "bytes",
          "name": "id",
          "type": "bytes"
        },
        {
          "internalType": "uint256[2]",
          "name": "a1",
          "type": "uint256[2]"
        },
        {
          "internalType": "uint256[2]",
          "name": "b1",
          "type": "uint256[2]"
        },
        {
          "internalType": "uint256[2]",
          "name": "a2",
          "type": "uint256[2]"
        },
        {
          "internalType": "uint256[2]",
          "name": "b2",
          "type": "uint256[2]"
        }
      ],
      "name": "getChallengeForNZIK1",
      "outputs": [
        {
          "internalType": "uint256",
          "name": "",
          "type": "uint256"
        }
      ],
      "stateMutability": "view",
      "type": "function",
      "constant": true
    },
    {
      "inputs": [
        {
          "internalType": "address",
          "name": "group",
          "type": "address"
        },
        {
          "internalType": "bytes",
          "name": "id",
          "type": "bytes"
        },
        {
          "internalType": "uint256[2][]",
          "name": "a1",
          "type": "uint256[2][]"
        },
        {
          "internalType": "uint256[2][]",
          "name": "b1",
          "type": "uint256[2][]"
        },
        {
          "internalType": "uint256[2][]",
          "name": "a2",
          "type": "uint256[2][]"
        },
        {
          "internalType": "uint256[2][]",
          "name": "b2",
          "type": "uint256[2][]"
        }
      ],
      "name": "broadcastNIZKP1",
      "outputs": [],
      "stateMutability": "payable",
      "type": "function",
      "payable": true
    },
    {
      "inputs": [
        {
          "internalType": "address",
          "name": "group",
          "type": "address"
        },
        {
          "internalType": "bytes",
          "name": "id",
          "type": "bytes"
        },
        {
          "internalType": "uint256[]",
          "name": "d_1",
          "type": "uint256[]"
        },
        {
          "internalType": "uint256[]",
          "name": "d_2",
          "type": "uint256[]"
        },
        {
          "internalType": "uint256[]",
          "name": "r_1",
          "type": "uint256[]"
        },
        {
          "internalType": "uint256[]",
          "name": "r_2",
          "type": "uint256[]"
        }
      ],
      "name": "broadcastNIZKP2",
      "outputs": [],
      "stateMutability": "payable",
      "type": "function",
      "payable": true
    },
    {
      "inputs": [
        {
          "internalType": "address",
          "name": "group",
          "type": "address"
        },
        {
          "internalType": "bytes",
          "name": "id",
          "type": "bytes"
        }
      ],
      "name": "getKScalar",
      "outputs": [
        {
          "internalType": "uint256",
          "name": "scalar",
          "type": "uint256"
        }
      ],
      "stateMutability": "view",
      "type": "function",
      "constant": true
    },
    {
      "inputs": [
        {
          "internalType": "address",
          "name": "group",
          "type": "address"
        },
        {
          "internalType": "bytes",
          "name": "id",
          "type": "bytes"
        },
        {
          "internalType": "uint256[2]",
          "name": "c_0_i",
          "type": "uint256[2]"
        },
        {
          "internalType": "uint256[2][2]",
          "name": "k_i",
          "type": "uint256[2][2]"
        }
      ],
      "name": "addPart",
      "outputs": [],
      "stateMutability": "payable",
      "type": "function",
      "payable": true
    },
    {
      "inputs": [
        {
          "internalType": "address",
          "name": "group",
          "type": "address"
        },
        {
          "internalType": "bytes",
          "name": "id",
          "type": "bytes"
        },
        {
          "internalType": "uint256[2]",
          "name": "cR",
          "type": "uint256[2]"
        },
        {
          "internalType": "uint256[2]",
          "name": "gR",
          "type": "uint256[2]"
        },
        {
          "internalType": "uint256",
          "name": "xMember",
          "type": "uint256"
        }
      ],
      "name": "getChallengeForNZIK2",
      "outputs": [
        {
          "internalType": "uint256",
          "name": "",
          "type": "uint256"
        }
      ],
      "stateMutability": "view",
      "type": "function",
      "constant": true
    },
    {
      "inputs": [
        {
          "internalType": "address",
          "name": "group",
          "type": "address"
        },
        {
          "internalType": "bytes",
          "name": "id",
          "type": "bytes"
        },
        {
          "internalType": "uint256[2]",
          "name": "cR",
          "type": "uint256[2]"
        },
        {
          "internalType": "uint256[2]",
          "name": "gR",
          "type": "uint256[2]"
        },
        {
          "internalType": "uint256",
          "name": "z",
          "type": "uint256"
        }
      ],
      "name": "verifyNZIK2",
      "outputs": [],
      "stateMutability": "nonpayable",
      "type": "function"
    },
    {
      "inputs": [
        {
          "internalType": "bytes",
          "name": "id",
          "type": "bytes"
        }
      ],
      "name": "verdict",
      "outputs": [],
      "stateMutability": "payable",
      "type": "function",
      "payable": true
    },
    {
      "inputs": [
        {
          "internalType": "address",
          "name": "group",
          "type": "address"
        },
        {
          "internalType": "bytes",
          "name": "message",
          "type": "bytes"
        }
      ],
      "name": "broadcast",
      "outputs": [],
      "stateMutability": "payable",
      "type": "function",
      "payable": true
    }
  ],
  "bytecode": "0x608060405234801561001057600080fd5b50614dcf806100206000396000f3fe6080604052600436106100df576000357c010000000000000000000000000000000000000000000000000000000090048063a9fbe63a1161009c578063cc8845f311610076578063cc8845f314610ebd578063e6758e4d14611025578063eeb920d014611095578063f84fc892146111d0576100df565b8063a9fbe63a146109b6578063b860fcdf14610a6c578063c1f4d4be14610dfa576100df565b8063273d7180146100e4578063706b2b7e146103a657806379f6acc9146104bd5780639e859a361461060e578063a706fe7e146108d4578063a7a7b7451461097a575b600080fd5b6103a460048036036101608110156100fb57600080fd5b81019060208101813564010000000081111561011657600080fd5b82018360208201111561012857600080fd5b8035906020019184600183028401116401000000008311171561014a57600080fd5b91908080601f016020809104026020016040519081016040528093929190818152602001838380828437600092019190915250929594936020810193503591505064010000000081111561019d57600080fd5b8201836020820111156101af57600080fd5b803590602001918460408302840111640100000000831117156101d157600080fd5b9190808060200260200160405190810160405280939291908181526020016000905b8282101561023157604080518082018252908084028701906002908390839080828437600092019190915250505081526001909101906020016101f3565b5093969594602081019450359250505064010000000081111561025357600080fd5b82018360208201111561026557600080fd5b8035906020019184604083028401116401000000008311171561028757600080fd5b9190808060200260200160405190810160405280939291908181526020016000905b828210156102e757604080518082018252908084028701906002908390839080828437600092019190915250505081526001909101906020016102a9565b5050604080518082018252949796958181019594509250600291508390839080828437600092019190915250506040805180820182529295949381810193925090600290839083908082843760009201829052506040805180820190915293969594608081019493509150600290835b828210156103955760408051808201825290808402860190600290839083908082843760009201919091525050508152600190910190602001610357565b509295506112e7945050505050565b005b3480156103b257600080fd5b506103a4600480360360e08110156103c957600080fd5b600160a060020a0382351691908101906040810160208201356401000000008111156103f457600080fd5b82018360208201111561040657600080fd5b8035906020019184600183028401116401000000008311171561042857600080fd5b91908080601f016020809104026020016040519081016040528093929190818152602001838380828437600092019190915250506040805180820182529396959481810194935091506002908390839080828437600092019190915250506040805180820182529295949381810193925090600290839083908082843760009201919091525091945050903591506119da9050565b6103a460048036036101408110156104d457600080fd5b8101906020810181356401000000008111156104ef57600080fd5b82018360208201111561050157600080fd5b8035906020019184602083028401116401000000008311171561052357600080fd5b9190808060200260200160405190810160405280939291908181526020018383602002808284376000920191909152505060408051808201825293968535969095909460608201945092506020019060029083908390808284376000920191909152505060408051808201825292959493818101939250906002908390839080828437600092019190915250506040805180820182529295949381810193925090600290839083908082843760009201919091525050604080518082018252929594938181019392509060029083908390808284376000920191909152509194506123539350505050565b6103a4600480360360c081101561062457600080fd5b600160a060020a03823516919081019060408101602082013564010000000081111561064f57600080fd5b82018360208201111561066157600080fd5b8035906020019184600183028401116401000000008311171561068357600080fd5b91908080601f01602080910402602001604051908101604052809392919081815260200183838082843760009201919091525092959493602081019350359150506401000000008111156106d657600080fd5b8201836020820111156106e857600080fd5b8035906020019184602083028401116401000000008311171561070a57600080fd5b919080806020026020016040519081016040528093929190818152602001838360200280828437600092019190915250929594936020810193503591505064010000000081111561075a57600080fd5b82018360208201111561076c57600080fd5b8035906020019184602083028401116401000000008311171561078e57600080fd5b91908080602002602001604051908101604052809392919081815260200183836020028082843760009201919091525092959493602081019350359150506401000000008111156107de57600080fd5b8201836020820111156107f057600080fd5b8035906020019184602083028401116401000000008311171561081257600080fd5b919080806020026020016040519081016040528093929190818152602001838360200280828437600092019190915250929594936020810193503591505064010000000081111561086257600080fd5b82018360208201111561087457600080fd5b8035906020019184602083028401116401000000008311171561089657600080fd5b9190808060200260200160405190810160405280939291908181526020018383602002808284376000920191909152509295506126a1945050505050565b6103a4600480360360208110156108ea57600080fd5b81019060208101813564010000000081111561090557600080fd5b82018360208201111561091757600080fd5b8035906020019184600183028401116401000000008311171561093957600080fd5b91908080601f016020809104026020016040519081016040528093929190818152602001838380828437600092019190915250929550612870945050505050565b34801561098657600080fd5b506109a46004803603602081101561099d57600080fd5b50356131a4565b60408051918252519081900360200190f35b6103a4600480360360408110156109cc57600080fd5b600160a060020a0382351691908101906040810160208201356401000000008111156109f757600080fd5b820183602082011115610a0957600080fd5b80359060200191846001830284011164010000000083111715610a2b57600080fd5b91908080601f016020809104026020016040519081016040528093929190818152602001838380828437600092019190915250929550613246945050505050565b6103a4600480360360c0811015610a8257600080fd5b600160a060020a038235169190810190604081016020820135640100000000811115610aad57600080fd5b820183602082011115610abf57600080fd5b80359060200191846001830284011164010000000083111715610ae157600080fd5b91908080601f0160208091040260200160405190810160405280939291908181526020018383808284376000920191909152509295949360208101935035915050640100000000811115610b3457600080fd5b820183602082011115610b4657600080fd5b80359060200191846040830284011164010000000083111715610b6857600080fd5b9190808060200260200160405190810160405280939291908181526020016000905b82821015610bc85760408051808201825290808402870190600290839083908082843760009201919091525050508152600190910190602001610b8a565b50939695946020810194503592505050640100000000811115610bea57600080fd5b820183602082011115610bfc57600080fd5b80359060200191846040830284011164010000000083111715610c1e57600080fd5b9190808060200260200160405190810160405280939291908181526020016000905b82821015610c7e5760408051808201825290808402870190600290839083908082843760009201919091525050508152600190910190602001610c40565b50939695946020810194503592505050640100000000811115610ca057600080fd5b820183602082011115610cb257600080fd5b80359060200191846040830284011164010000000083111715610cd457600080fd5b9190808060200260200160405190810160405280939291908181526020016000905b82821015610d345760408051808201825290808402870190600290839083908082843760009201919091525050508152600190910190602001610cf6565b50939695946020810194503592505050640100000000811115610d5657600080fd5b820183602082011115610d6857600080fd5b80359060200191846040830284011164010000000083111715610d8a57600080fd5b9190808060200260200160405190810160405280939291908181526020016000905b82821015610dea5760408051808201825290808402870190600290839083908082843760009201919091525050508152600190910190602001610dac565b5093965061331795505050505050565b348015610e0657600080fd5b506109a460048036036040811015610e1d57600080fd5b600160a060020a038235169190810190604081016020820135640100000000811115610e4857600080fd5b820183602082011115610e5a57600080fd5b80359060200191846001830284011164010000000083111715610e7c57600080fd5b91908080601f016020809104026020016040519081016040528093929190818152602001838380828437600092019190915250929550613557945050505050565b348015610ec957600080fd5b506109a46004803603610140811015610ee157600080fd5b600160a060020a038235169190810190604081016020820135640100000000811115610f0c57600080fd5b820183602082011115610f1e57600080fd5b80359060200191846001830284011164010000000083111715610f4057600080fd5b91908080601f01602080910402602001604051908101604052809392919081815260200183838082843760009201919091525050604080518082018252939695948181019493509150600290839083908082843760009201919091525050604080518082018252929594938181019392509060029083908390808284376000920191909152505060408051808201825292959493818101939250906002908390839080828437600092019190915250506040805180820182529295949381810193925090600290839083908082843760009201919091525091945061378f9350505050565b6110816004803603606081101561103b57600080fd5b604080518082018252600160a060020a038435169392830192916060830191906020840190600290839083908082843760009201919091525091945061393d9350505050565b604080519115158252519081900360200190f35b6103a460048036036101008110156110ac57600080fd5b600160a060020a0382351691908101906040810160208201356401000000008111156110d757600080fd5b8201836020820111156110e957600080fd5b8035906020019184600183028401116401000000008311171561110b57600080fd5b91908080601f01602080910402602001604051908101604052809392919081815260200183838082843760009201919091525050604080518082018252939695948181019493509150600290839083908082843760009201829052506040805180820190915293969594608081019493509150600290835b828210156111c15760408051808201825290808402860190600290839083908082843760009201919091525050508152600190910190602001611183565b50929550613b4c945050505050565b3480156111dc57600080fd5b506109a4600480360360e08110156111f357600080fd5b600160a060020a03823516919081019060408101602082013564010000000081111561121e57600080fd5b82018360208201111561123057600080fd5b8035906020019184600183028401116401000000008311171561125257600080fd5b91908080601f016020809104026020016040519081016040528093929190818152602001838380828437600092019190915250506040805180820182529396959481810194935091506002908390839080828437600092019190915250506040805180820182529295949381810193925090600290839083908082843760009201919091525091945050903591506141b99050565b336000908152602081905260409020600b015460ff1661133f576040805160e560020a62461bcd0281526020600482015260196024820152600080516020614d06833981519152604482015290519081900360640190fd5b60008033600160a060020a0316600160a060020a03168152602001908152602001600020600c01866040518082805190602001908083835b602083106113965780518252601f199092019160209182019101611377565b518151600019602094850361010090810a9190910191821691199290921617909152939091019586526040519586900301909420600b015460ff919004161592506114189150505760405160e560020a62461bcd028152600401808060200182810382526026815260200180614c9a6026913960400191505060405180910390fd5b3360009081526020818152604091829020915188518993600c019284929182918401908083835b6020831061145e5780518252601f19909201916020918201910161143f565b51815160209384036101000a6000190180199092169116179052920194855250604051938490038101909320845161149f9591949190910192509050614a9a565b50336000908152602081815260409182902091518851600193600c01928a929182918401908083835b602083106114e75780518252601f1990920191602091820191016114c8565b6001836020036101000a0380198251168184511680821785525050505050509050019150509081526020016040518091039020600b0160016101000a81548160ff0219169083151502179055508260006002811061154157fe5b602002015160008033600160a060020a0316600160a060020a03168152602001908152602001600020600c01876040518082805190602001908083835b6020831061159d5780518252601f19909201916020918201910161157e565b51815160209384036101000a60001901801990921691161790529201948552506040805194859003820185206003019590955587810151336000908152808352959095208b51600c909101948c9450925082918401908083835b602083106116165780518252601f1990920191602091820191016115f7565b51815160209384036101000a6000190180199092169116179052920194855250604080519485900382018520600401959095558651336000908152808352959095208b51600c909101948c9450925082918401908083835b6020831061168d5780518252601f19909201916020918201910161166e565b51815160209384036101000a60001901801990921691161790529201948552506040805194859003820185206005019590955586810151336000908152808352959095208b51600c909101948c9450925082918401908083835b602083106117065780518252601f1990920191602091820191016116e7565b51815160209384036101000a6000190180199092169116179052920194855250604080519485900382018520600601959095558551336000908152808352959095208b51600c909101948c9450925082918401908083835b6020831061177d5780518252601f19909201916020918201910161175e565b51815160209384036101000a600019018019909216911617905292019485525060405193849003019092206117bc936007909101925090506002614b18565b50806001602002015160008033600160a060020a0316600160a060020a03168152602001908152602001600020600c01876040518082805190602001908083835b6020831061181c5780518252601f1990920191602091820191016117fd565b51815160209384036101000a6000190180199092169116179052920194855250604051938490030190922061185b936009909101925090506002614b18565b507fb14a84e658f1529b77cb8a1c12445ec6d58d82c1da4e6da010b2674f39efac9d338787876040518085600160a060020a0316600160a060020a03168152602001806020018060200180602001848103845287818151815260200191508051906020019080838360005b838110156118de5781810151838201526020016118c6565b50505050905090810190601f16801561190b5780820380516001836020036101000a031916815260200191505b5084810383528651815286516000918891906020015b8184101561196357602080850284010151604080838360005b8381101561195257818101518382015260200161193a565b505050509050019260010192611921565b87810385528851815288516000945089935091506020015b818410156119bd57602080850284010151604080838360005b838110156119ac578181015183820152602001611994565b50505050905001926001019261197b565b9250505097505050505050505060405180910390a1505050505050565b600160a060020a0385166000908152602081905260409020600b015460ff16611a3b576040805160e560020a62461bcd0281526020600482015260196024820152600080516020614d06833981519152604482015290519081900360640190fd5b60008086600160a060020a0316600160a060020a03168152602001908152602001600020600c01846040518082805190602001908083835b60208310611a925780518252601f199092019160209182019101611a73565b6001836020036101000a0380198251168184511680821785525050505050509050019150509081526020016040518091039020600b0160019054906101000a900460ff1615156001151514611b1b5760405160e560020a62461bcd028152600401808060200182810382526026815260200180614d746026913960400191505060405180910390fd5b600160a060020a038516600090815260208181526040808320338452600d0190915290205480611b7f5760405160e560020a62461bcd028152600401808060200182810382526026815260200180614cc06026913960400191505060405180910390fd5b60005b60008088600160a060020a0316600160a060020a03168152602001908152602001600020600c01866040518082805190602001908083835b60208310611bd95780518252601f199092019160209182019101611bba565b51815160209384036101000a600019018019909216911617905292019485525060405193849003019092206001015483101591506123499050578160008089600160a060020a0316600160a060020a03168152602001908152602001600020600c01876040518082805190602001908083835b60208310611c6b5780518252601f199092019160209182019101611c4c565b51815160209384036101000a6000190180199092169116179052920194855250604051938490030190922060010180549092508491508110611ca957fe5b90600052602060002090600902016007015414156123415760408051600380825260808201909252606091816020015b611ce1614b45565b815260200190600190039081611cd95790505090506000611d0589898989886141b9565b9050611dd56000808b600160a060020a0316600160a060020a03168152602001908152602001600020600c01896040518082805190602001908083835b60208310611d615780518252601f199092019160209182019101611d42565b51815160209384036101000a6000190180199092169116179052920194855250604051938490030190922060010180549092508691508110611d9f57fe5b9060005260206000209060090201600001604051806040016040529081600082015481526020016001820154815250508261450f565b82600081518110611de257fe5b6020026020010181905250611df5614b45565b87518152602080890151908201528251819084906001908110611e1457fe5b6020026020010181905250611ecb611ec66000808d600160a060020a0316600160a060020a03168152602001908152602001600020600c018b6040518082805190602001908083835b60208310611e7c5780518252601f199092019160209182019101611e5d565b51815160209384036101000a60001901801990921691161790529201948552506040805194859003820185208582019091526003810154855260040154908401525089905061450f565b614575565b83600281518110611ed857fe5b602090810291909101015260408051600380825260808201909252606091816020015b611f03614b5f565b815260200190600190039081611efb5790505090506000808c600160a060020a0316600160a060020a03168152602001908152602001600020600c018a6040518082805190602001908083835b60208310611f6f5780518252601f199092019160209182019101611f50565b51815160209384036101000a6000190180199092169116179052920194855250604051938490030190922060010180549092508791508110611fad57fe5b60009182526020909120604080516080810180835290936009029092016002908101928492830191849182845b815481526020019060010190808311611fda57505050918352505060408051808201918290526020909201919060028481019182845b815481526020019060010190808311612010575050505050815250508160008151811061203957fe5b60200260200101819052506000808c600160a060020a0316600160a060020a03168152602001908152602001600020600c018a6040518082805190602001908083835b6020831061209b5780518252601f19909201916020918201910161207c565b51815160209384036101000a600019018019909216911617905292019485525060408051948590039091018420608085018083526007909101935084925090820190839060029082845b8154815260200190600101908083116120e557505050918352505060408051808201918290526020909201919060028481019182845b81548152602001906001019080831161211b575050505050815250508160018151811061214457fe5b60200260200101819052506000808c600160a060020a0316600160a060020a03168152602001908152602001600020600c018a6040518082805190602001908083835b602083106121a65780518252601f199092019160209182019101612187565b51815160209384036101000a600019018019909216911617905292019485525060408051948590039091018420608085018083526007909101935084925090820190839060029082845b8154815260200190600101908083116121f057505050918352505060408051808201918290526020909201919060028481019182845b815481526020019060010190808311612226575050505050815250508160028151811061224f57fe5b602002602001018190525061226484826145b8565b6122a25760405160e560020a62461bcd028152600401808060200182810382526023815260200180614d516023913960400191505060405180910390fd5b6122aa614b45565b6122c56122bf6122b98e614842565b8661450f565b8a614927565b90506122e1816122dc6122d6614984565b8b61450f565b61499b565b612335576040805160e560020a62461bcd02815260206004820181905260248201527f56616c69646174696f6e206f66204e5a494b32206661696c65643a20506b6579604482015290519081900360640190fd5b5050505050505061234c565b600101611b82565b50505b5050505050565b336000908152602081905260409020600b015460ff16156123be576040805160e560020a62461bcd02815260206004820152601560248201527f47726f757020616c726561647920657869737473210000000000000000000000604482015290519081900360640190fd5b336000818152602081905260408120805473ffffffffffffffffffffffffffffffffffffffff19169092179091555b8651811015612488576123fe614b84565b87828151811061240a57fe5b602090810291909101810151600160a060020a03908116835233600090815280835260408120600a01805460018082018355918352918490208551600390930201805473ffffffffffffffffffffffffffffffffffffffff1916929093169190911782559282015180518285015590910151600290910155016123ed565b5060005b86518110156124fa578060010160008033600160a060020a0316600160a060020a03168152602001908152602001600020600d0160008984815181106124ce57fe5b602090810291909101810151600160a060020a031682528101919091526040016000205560010161248c565b3360008181526020818152604080832060018082018c9055600b8201805460ff19169091179055895160028201558983015160038201558851600482015588830151600582015587516006820155878301516007820155865160088201558683015160099091015580518481527f2019e76dd8ec6f18317df633a87b0d06964ad71ff38c99c45b563bcd3de0018d94938c938b938b938b938b93919291830191838101918891908190849084905b838110156125c05781810151838201526020016125a8565b5050505090500185600260200280838360005b838110156125eb5781810151838201526020016125d3565b5050505090500184600260200280838360005b838110156126165781810151838201526020016125fe565b5050505090500183600260200280838360005b83811015612641578181015183820152602001612629565b50505050905001828103825287818151815260200191508051906020019060200280838360005b83811015612680578181015183820152602001612668565b5050505090500197505050505050505060405180910390a150505050505050565b7f119efea2ae968ff8bcc87dfba6741b87ac61a09d9107aa0fb073ff2e9861d5de8686868686866040518087600160a060020a0316600160a060020a03168152602001806020018060200180602001806020018060200186810386528b818151815260200191508051906020019080838360005b8381101561272d578181015183820152602001612715565b50505050905090810190601f16801561275a5780820380516001836020036101000a031916815260200191505b5086810385528a5181528a51602091820191808d01910280838360005b8381101561278f578181015183820152602001612777565b50505050905001868103845289818151815260200191508051906020019060200280838360005b838110156127ce5781810151838201526020016127b6565b50505050905001868103835288818151815260200191508051906020019060200280838360005b8381101561280d5781810151838201526020016127f5565b50505050905001868103825287818151815260200191508051906020019060200280838360005b8381101561284c578181015183820152602001612834565b505050509050019b50505050505050505050505060405180910390a1505050505050565b3360009081526020818152604091829020600181015492518451600c90920192859282918401908083835b602083106128ba5780518252601f19909201916020918201910161289b565b51815160209384036101000a60001901801990921691161790529201948552506040519384900301909220600201549290921015915061293090505760405160e560020a62461bcd02815260040180806020018281038252602b815260200180614d26602b913960400191505060405180910390fd5b336000908152602081815260409182902091518351606093600c019285929182918401908083835b602083106129775780518252601f199092019160209182019101612958565b51815160209384036101000a6000190180199092169116179052920194855250604080519485900382018520600190810154018086528083028601909201905291505080156129e057816020015b6129cd614b45565b8152602001906001900390816129c55790505b509050606060008033600160a060020a0316600160a060020a03168152602001908152602001600020600c01836040518082805190602001908083835b60208310612a3c5780518252601f199092019160209182019101612a1d565b51815160209384036101000a600019018019909216911617905292019485525060408051948590038201852060019081015401808652808302860190920190529150508015612aa557816020015b612a92614b5f565b815260200190600190039081612a8a5790505b50905060005b60008033600160a060020a0316600160a060020a03168152602001908152602001600020600c01846040518082805190602001908083835b60208310612b025780518252601f199092019160209182019101612ae3565b51815160209384036101000a60001901801990921691161790529201948552506040519384900301909220600101548310159150612e8c9050573360009081526020818152604080832090518751612ca793600c9093019289929182918401908083835b60208310612b855780518252601f199092019160209182019101612b66565b51815160209384036101000a6000190180199092169116179052920194855250604051938490030190922060010180549092508591508110612bc357fe5b90600052602060002090600902016007015460008033600160a060020a0316600160a060020a03168152602001908152602001600020600c01876040518082805190602001908083835b60208310612c2c5780518252601f199092019160209182019101612c0d565b51815160209384036101000a600019018019909216911617905292019485525060408051948590038201852060020180548084028701840190925281865293509150830182828015612c9d57602002820191906000526020600020905b815481526020019060010190808311612c89575b50505050506149bd565b9050612d4160008033600160a060020a0316600160a060020a03168152602001908152602001600020600c01866040518082805190602001908083835b60208310612d035780518252601f199092019160209182019101612ce4565b51815160209384036101000a6000190180199092169116179052920194855250604051938490030190922060010180549092508591508110611d9f57fe5b848381518110612d4d57fe5b602002602001018190525060008033600160a060020a0316600160a060020a03168152602001908152602001600020600c01856040518082805190602001908083835b60208310612daf5780518252601f199092019160209182019101612d90565b51815160209384036101000a6000190180199092169116179052920194855250604051938490030190922060010180549092508491508110612ded57fe5b60009182526020909120604080516080810180835290936009029092016002908101928492830191849182845b815481526020019060010190808311612e1a57505050918352505060408051808201918290526020909201919060028481019182845b815481526020019060010190808311612e5057505050505081525050838381518110612e7857fe5b602090810291909101015250600101612aab565b50336000908152602081815260409182902091518551612f1e93600c019287929182918401908083835b60208310612ed55780518252601f199092019160209182019101612eb6565b51815160209384036101000a6000190180199092169116179052920194855250604080519485900382018520858201909152600581015485526006015490840152506145759050565b3360009081526020818152604091829020915186518693600c019288929182918401908083835b60208310612f645780518252601f199092019160209182019101612f45565b51815160209384036101000a6000190180199092169116179052920194855250604051938490030190922060010154835190925082109050612fa257fe5b602002602001018190525060008033600160a060020a0316600160a060020a03168152602001908152602001600020600c01836040518082805190602001908083835b602083106130045780518252601f199092019160209182019101612fe5565b51815160209384036101000a600019018019909216911617905292019485525060408051948590039091018420608085018083526007909101935084925090820190839060029082845b81548152602001906001019080831161304e57505050918352505060408051808201918290526020909201919060028481019182845b815481526020019060010190808311613084575050505050815250508160008033600160a060020a0316600160a060020a03168152602001908152602001600020600c01856040518082805190602001908083835b602083106130f85780518252601f1990920191602091820191016130d9565b51815160209384036101000a600019018019909216911617905292019485525060405193849003019092206001015483519092508210905061313657fe5b602002602001018190525061314b82826145b8565b61319f576040805160e560020a62461bcd02815260206004820152601060248201527f496e636f727265637420616e7377657200000000000000000000000000000000604482015290519081900360640190fd5b505050565b600081600080516020614ce68339815191528111156131d05750600080516020614ce683398151915282065b60006001600080516020614ce683398151915283835b811561320f578183816131f557fe5b9495940485810290940393919283830290039190506131e6565b60008512156132385750505050600003600080516020614ce68339815191520391506132419050565b50929450505050505b919050565b7f2093e8ebc433ce3e5a7b7b0afd7c06b1785d1bae2c3ef9c4b61dbe29414a0f458233836040518084600160a060020a0316600160a060020a0316815260200183600160a060020a0316600160a060020a0316815260200180602001828103825283818151815260200191508051906020019080838360005b838110156132d75781810151838201526020016132bf565b50505050905090810190601f1680156133045780820380516001836020036101000a031916815260200191505b5094505050505060405180910390a15050565b7fa483dc34077ffed6f8e4c8604b302344756041dacc633675222bd6dbe49058f08686868686866040518087600160a060020a0316600160a060020a03168152602001806020018060200180602001806020018060200186810386528b818151815260200191508051906020019080838360005b838110156133a357818101518382015260200161338b565b50505050905090810190601f1680156133d05780820380516001836020036101000a031916815260200191505b5086810385528a5181528a516000918c91906020015b8184101561342857602080850284010151604080838360005b838110156134175781810151838201526020016133ff565b5050505090500192600101926133e6565b89810387528c5181528c51600094508d935091506020015b8184101561348257602080850284010151604080838360005b83811015613471578181015183820152602001613459565b505050509050019260010192613440565b89810386528b5181528b51600094508c935091506020015b818410156134dc57602080850284010151604080838360005b838110156134cb5781810151838201526020016134b3565b50505050905001926001019261349a565b89810385528a5181528a51600094508b935091506020015b8184101561353657602080850284010151604080838360005b8381101561352557818101518382015260200161350d565b5050505090500192600101926134f4565b925050509b50505050505050505050505060405180910390a1505050505050565b6000806002848460008088600160a060020a0316600160a060020a03168152602001908152602001600020600c01866040518082805190602001908083835b602083106135b55780518252601f199092019160209182019101613596565b51815160209384036101000a600019018019909216911617905292019485525060408051948590038201852060050154600160a060020a038d166000908152808452919091208b519195600c90910194508b9350918291908401908083835b602083106136335780518252601f199092019160209182019101613614565b51815160209384036101000a6000190180199092169116179052920194855250604051938490038101842060060154600160a060020a0388166c0100000000000000000000000002858301908152875191959094506034019250908601908083835b602083106136b45780518252601f199092019160209182019101613695565b51815160209384036101000a60001901801990921691161790529201948552508381019290925250604080518084038301815292810190819052825192945092508291908401908083835b6020831061371e5780518252601f1990920191602091820191016136ff565b51815160209384036101000a60001901801990921691161790526040519190930194509192505080830381855afa15801561375d573d6000803e3d6000fd5b5050506040513d602081101561377257600080fd5b5051600080516020614ce683398151915290069150505b92915050565b60008060028888888460200201518960016020020151886000602002015189600160200201518b600060200201518c600160200201518b600060200201518c60016020020151604051602001808b600160a060020a0316600160a060020a03166c010000000000000000000000000281526014018a805190602001908083835b6020831061382e5780518252601f19909201916020918201910161380f565b6001836020036101000a0380198251168184511680821785525050505050509050018981526020018881526020018781526020018681526020018581526020018481526020018381526020018281526020019a50505050505050505050506040516020818303038152906040526040518082805190602001908083835b602083106138ca5780518252601f1990920191602091820191016138ab565b51815160209384036101000a60001901801990921691161790526040519190930194509192505080830381855afa158015613909573d6000803e3d6000fd5b5050506040513d602081101561391e57600080fd5b5051600080516020614ce6833981519152900698975050505050505050565b600160a060020a0382166000908152602081905260408120600b015460ff1661399e576040805160e560020a62461bcd0281526020600482015260196024820152600080516020614d06833981519152604482015290519081900360640190fd5b60005b600160a060020a0384166000908152602081905260409020600a0154811015613b4257600160a060020a0384166000908152602081905260409020600a018054339190839081106139ee57fe5b6000918252602090912060039091020154600160a060020a03161415613b3a57600160a060020a0384166000908152602081905260409020600a018054613a6f919083908110613a3a57fe5b906000526020600020906003020160010160405180604001604052908160008201548152602001600182015481525050614a84565b1515600114613ac8576040805160e560020a62461bcd02815260206004820152601460248201527f41206b657920616c726561647920657869737473000000000000000000000000604482015290519081900360640190fd5b613ad0614b45565b8351815260208085015182820152600160a060020a03861660009081529081905260409020600a01805482919084908110613b0757fe5b90600052602060002090600302016001016000820151816000015560208201518160010155905050600192505050613789565b6001016139a1565b5060009392505050565b600160a060020a0384166000908152602081905260409020600b015460ff16613bad576040805160e560020a62461bcd0281526020600482015260196024820152600080516020614d06833981519152604482015290519081900360640190fd5b60008085600160a060020a0316600160a060020a03168152602001908152602001600020600c01836040518082805190602001908083835b60208310613c045780518252601f199092019160209182019101613be5565b6001836020036101000a0380198251168184511680821785525050505050509050019150509081526020016040518091039020600b0160019054906101000a900460ff1615156001151514613c8d5760405160e560020a62461bcd028152600401808060200182810382526026815260200180614d746026913960400191505060405180910390fd5b600160a060020a038416600090815260208181526040808320338452600d0190915290205480613cf15760405160e560020a62461bcd028152600401808060200182810382526026815260200180614cc06026913960400191505060405180910390fd5b60005b60008087600160a060020a0316600160a060020a03168152602001908152602001600020600c01856040518082805190602001908083835b60208310613d4b5780518252601f199092019160209182019101613d2c565b51815160209384036101000a60001901801990921691161790529201948552506040519384900301909220600101548310159150613e8b9050578160008088600160a060020a0316600160a060020a03168152602001908152602001600020600c01866040518082805190602001908083835b60208310613ddd5780518252601f199092019160209182019101613dbe565b51815160209384036101000a6000190180199092169116179052920194855250604051938490030190922060010180549092508491508110613e1b57fe5b9060005260206000209060090201600701541415613e83576040805160e560020a62461bcd02815260206004820152601360248201527f416c726561647920616464656420706172742100000000000000000000000000604482015290519081900360640190fd5b600101613cf4565b50613e94614ba7565b60608101829052613ea3614b45565b8451815260208086015190820152808252613ebc614b5f565b8451815260208086015182820152838101829052600160a060020a038916600090815280825260409081902090518951600c909201928a9282918401908083835b60208310613f1c5780518252601f199092019160209182019101613efd565b51815160209384036101000a60001901801990921691161790529201948552506040519384900381019093206001908101805480830182556000918252908590208851805160099093029091019182558501519181019190915592860151805187949350909150600280840191613f9591839190614b18565b506020820151613fab9060028084019190614b18565b50505060408281015160068301805460ff191691151591909117905560608301516007830155608090920151600890910155600160a060020a038916600090815260208181529082902091518951600c909301928a928291908401908083835b6020831061402a5780518252601f19909201916020918201910161400b565b51815160209384036101000a600019018019909216911617905292019485525060408051948590038201852060020180546001808201835560009283528483209091018b9055600160a060020a038f168252818452919020908101548c519095600c90920194508c935090918291908401908083835b602083106140bf5780518252601f1990920191602091820191016140a0565b51815160209384036101000a6000190180199092169116179052920194855250604051938490030190922060020154929092141591506141af9050577f489487cc4a834d079c8dbf0c0f9d9ffe66e1b83923588086d60cb5bbe225092a88886040518083600160a060020a0316600160a060020a0316815260200180602001828103825283818151815260200191508051906020019080838360005b8381101561417357818101518382015260200161415b565b50505050905090810190601f1680156141a05780820380516001836020036101000a031916815260200191505b50935050505060405180910390a15b5050505050505050565b6000805b60008088600160a060020a0316600160a060020a03168152602001908152602001600020600c01866040518082805190602001908083835b602083106142145780518252601f1990920191602091820191016141f5565b51815160209384036101000a600019018019909216911617905292019485525060405193849003019092206001015483101591506145049050578260008089600160a060020a0316600160a060020a03168152602001908152602001600020600c01876040518082805190602001908083835b602083106142a65780518252601f199092019160209182019101614287565b51815160209384036101000a60001901801990921691161790529201948552506040519384900301909220600101805490925084915081106142e457fe5b90600052602060002090600902016007015414156144fc578451602080870151865187830151600160a060020a038c166000908152808552604080822090518d5192976002979096959493600c909301928f92918291908401908083835b602083106143615780518252601f199092019160209182019101614342565b6001836020036101000a0380198251168184511680821785525050505050509050019150509081526020016040518091039020600301600001546000808f600160a060020a0316600160a060020a03168152602001908152602001600020600c018d6040518082805190602001908083835b602083106143f25780518252601f1990920191602091820191016143d3565b51815160209384036101000a6000190180199092169116179052920194855250604080519485900382018520600401548583019a909a528481019890985260608401969096525050608081019290925260a082015260c0808201949094528251808203909401845260e00191829052825182918401908083835b6020831061448b5780518252601f19909201916020918201910161446c565b51815160209384036101000a60001901801990921691161790526040519190930194509192505080830381855afa1580156144ca573d6000803e3d6000fd5b5050506040513d60208110156144df57600080fd5b5051600080516020614ce683398151915290069250614506915050565b6001016141bd565b505b95945050505050565b614517614b45565b61451f614be4565b83518152602080850151908201526040810183905261453c614c02565b6000606082608085600060076107d05a03f1905080801561455c5761455e565bfe5b505080518352602090810151908301525092915050565b61457d614b45565b8151815260208201517f30644e72e131a029b85045b68181585d97816a916871ca8d3c208c16d87cfd47906000038101066020820152919050565b60008151835114614613576040805160e560020a62461bcd02815260206004820181905260248201527f506f696e7473206172726179206c656e677468206e6f74206d61746368696e67604482015290519081900360640190fd5b8251604080516006830280825260c084028201602001909252606090828015614646578160200160208202803883390190505b50905060005b838110156147cb5786818151811061466057fe5b60200260200101516000015182826006026000018151811061467e57fe5b60200260200101818152505086818151811061469657fe5b6020026020010151602001518282600602600101815181106146b457fe5b6020026020010181815250508581815181106146cc57fe5b6020908102919091010151515182518390600260068502019081106146ed57fe5b60200260200101818152505085818151811061470557fe5b6020908102919091010151516001602002015182826006026003018151811061472a57fe5b60200260200101818152505085818151811061474257fe5b60200260200101516020015160006002811061475a57fe5b602002015182826006026004018151811061477157fe5b60200260200101818152505085818151811061478957fe5b6020026020010151602001516001600281106147a157fe5b60200201518282600602600501815181106147b857fe5b602090810291909101015260010161464c565b506147d4614c20565b60006020826020860260208601600060086107d05a03f1905080801561455c5750806148345760405160e560020a62461bcd028152600401808060200182810382526023815260200180614c776023913960400191505060405180910390fd5b505115159695505050505050565b61484a614b45565b60005b600160a060020a0383166000908152602081905260409020600a015481101561492157600160a060020a0383166000908152602081905260409020600a0180543391908390811061489a57fe5b6000918252602090912060039091020154600160a060020a0316141561491957600160a060020a0383166000908152602081905260409020600a018054829081106148e157fe5b906000526020600020906003020160010160405180604001604052908160008201548152602001600182015481525050915050613241565b60010161484d565b50919050565b61492f614b45565b614937614c3e565b835181526020808501518183015283516040830152830151606082015261495c614c02565b60408160808460065afa61496f57600080fd5b80518352602090810151908301525092915050565b61498c614b45565b60018152600260208201525b90565b805182516000911480156149b6575081602001518360200151145b9392505050565b60006001815b8351811015614a7c57848482815181106149d957fe5b602002602001015114614a74576000600080516020614ce6833981519152858381518110614a0357fe5b60200260200101516000030190506000614a58600080516020614ce6833981519152878581518110614a3157fe5b6020026020010151600080516020614ce68339815191528a010381614a5257fe5b066131a4565b9050600080516020614ce6833981519152808284098509935050505b6001016149c3565b509392505050565b8051600090158015613789575050602001511590565b828054600181600116156101000203166002900490600052602060002090601f016020900481019282601f10614adb57805160ff1916838001178555614b08565b82800160010185558215614b08579182015b82811115614b08578251825591602001919060010190614aed565b50614b14929150614c5c565b5090565b8260028101928215614b085791602002820182811115614b08578251825591602001919060010190614aed565b604051806040016040528060008152602001600081525090565b6040518060400160405280614b72614c02565b8152602001614b7f614c02565b905290565b60405180604001604052806000600160a060020a03168152602001614b7f614b45565b6040518060a00160405280614bba614b45565b8152602001614bc7614b5f565b815260200160001515815260200160008152602001600081525090565b60405180606001604052806003906020820280388339509192915050565b60405180604001604052806002906020820280388339509192915050565b60405180602001604052806001906020820280388339509192915050565b60405180608001604052806004906020820280388339509192915050565b61499891905b80821115614b145760008155600101614c6256fe43616c6c20746f20707265636f6d70696c656420636f6e7472616374206661696c6564416e20617474656d70742077697468207468697320696420616c726561647920657869737421546869732067726f757020646f65736e2774206861766520796f75206173206d656d6265722130644e72e131a029b85045b68181585d2833e84879b9709143e1f593f0000001546869732067726f757020646f65736e277420657869737421000000000000005468697320617474656d707420646f65736e2774206861766520656e6f756768207061727473207965742156616c69646174696f6e206f66204e5a494b32206661696c65643a2050616972696e67416e20617474656d70742077697468207468697320696420646f65736e277420657869737421a2646970667358221220fa372a5c0ba9a61c4e637e84852ccd5955cccd889fbb64c6fc324e8b9e1410c464736f6c63430006010033",
  "source": "pragma solidity ^0.6.1;\n\n\ncontract SecurityQuestionContract {\n    /*\n     * Structures and methods FQ\n     */\n\n    uint constant curveOrder = 21888242871839275222246405745257275088548364400416034343698204186575808495617;\n\n    // Modified from https://github.com/androlo/standard-contracts/blob/master/contracts/src/crypto/ECCMath.sol\n    function inverseMod(uint u) public pure returns (uint inversed) {\n        uint tmp = u;\n\n        if (tmp > curveOrder)\n            tmp = u % curveOrder;\n\n        int t1;\n        int t2 = 1;\n        uint r1 = curveOrder;\n        uint r2 = tmp;\n        uint q;\n\n        while (r2 != 0) {\n            q = r1 / r2;\n            (t1, t2, r1, r2) = (t2, t1 - int(q) * t2, r2, r1 - q * r2);\n        }\n\n        if (t1 < 0)\n            return (curveOrder - uint(-t1));\n\n        return uint(t1);\n    }\n\n    // calculates the lagrange for x and x_j = {others}\n    function getLagrange(uint x, uint[] memory others) private pure returns (uint exponent) {\n        uint product = 1;\n        for (uint i = 0; i < others.length; i++) {\n            if (others[i] != x) {\n                uint upperTerm = -others[i] + curveOrder;\n                uint lowerTerm = inverseMod((x + curveOrder - others[i]) % curveOrder);\n                product = mulmod(product, mulmod(upperTerm, lowerTerm, curveOrder), curveOrder);\n            }\n        }\n\n        return product;\n    }\n\n    /*\n     * Structures and methods in G_1 and G2\n     */ \n    struct G1Element{\n        uint x;\n        uint y;\n    }\n\n\n    uint constant fieldModulus = 21888242871839275222246405745257275088696311157297823662689037894645226208583;\n\n\n    function getG1() internal pure returns(G1Element memory generator) {\n        generator.x = 1;\n        generator.y = 2;\n        return generator;\n    }\n\n    function addInG1(G1Element memory e1, uint[2] memory e2) internal returns (G1Element memory sumElement) {\n        uint[4] memory input;\n        input[0] = e1.x;\n        input[1] = e1.y;\n        input[2] = e2[0];\n        input[3] = e2[1];\n\n        uint[2] memory output;\n\n        assembly {\n            if iszero(staticcall(gas(), 0x06, input, 0x80, output, 0x40)) {\n                revert(0,0)\n            }\n        }\n        sumElement.x = output[0];\n        sumElement.y = output[1];\n        return sumElement;\n    }\n\n    function multiply(G1Element memory element, uint scalar) internal returns (G1Element memory productElement) {\n        uint[3] memory input;\n        input[0] = element.x;\n        input[1] = element.y;\n        input[2] = scalar;\n\n        uint[2] memory out;\n        bool success;\n\n        assembly {\n            success := call(sub(gas(), 2000), 7, 0, input, 0x80, out, 0x60)\n            // Use \"invalid\" to make gas estimation work\n            switch success case 0 { invalid() }\n        }\n\n        productElement.x = out[0];\n        productElement.y = out[1];\n        return productElement;\n    }\n\n    function equals(G1Element memory element1, G1Element memory element2) internal pure returns (bool) {\n        return element1.x == element2.x && element1.y == element2.y;\n    }\n\n    function negate(G1Element memory p) internal pure returns (G1Element memory res) {\n        res.x = p.x;\n        res.y = (-p.y + fieldModulus) % fieldModulus ;\n        return res;\n    }\n\n\n    function isEmpty(G1Element memory p) internal pure returns (bool) {\n        return p.x == 0 && p.y == 0;\n    }\n\n    struct G2Element{\n        uint[2] coeffs_x;\n        uint[2] coeffs_y;\n    }\n\n    function isEmpty(G2Element memory p) internal pure returns (bool) {\n        return p.coeffs_x[0] == 0 && p.coeffs_x[1] == 0 && p.coeffs_y[0] == 0 && p.coeffs_y[1] == 0;\n    }\n\n\n    /*\n     * Checks the pairing. Please note that in the paper we use \\prod{i} e((c_0_i)^lambda, k_i) = e(c_1_tilde, k), however we can't use that here.\n     * Ethereum has a different pairing format, see https://github.com/ethereum/EIPs/blob/master/EIPS/eip-197.md\n     * So we have to check if \\prod{i} e((c_0_i)^lambda, k_i) * e(-c_1_tilde, k) = 1\n     */\n    function pairing(G1Element[] memory g1Elements, G2Element[] memory g2Elements) internal returns (bool) {\n        require(g1Elements.length == g2Elements.length, \"Points array length not matching\");\n\n        uint elements = g1Elements.length;\n        uint inputSize = elements * 6;\n        uint[] memory input = new uint[](inputSize);\n\n        for (uint i = 0; i < elements; i++)\n        {\n            input[i * 6 + 0] = g1Elements[i].x;\n            input[i * 6 + 1] = g1Elements[i].y;\n            input[i * 6 + 2] = g2Elements[i].coeffs_x[0];\n            input[i * 6 + 3] = g2Elements[i].coeffs_x[1];\n            input[i * 6 + 4] = g2Elements[i].coeffs_y[0];\n            input[i * 6 + 5] = g2Elements[i].coeffs_y[1];\n        }\n\n        uint[1] memory out;\n        bool success;\n\n        // solium-disable-next-line security/no-inline-assembly\n        assembly {\n            success := call(sub(gas(), 2000), 8, 0, add(input, 0x20), mul(inputSize, 0x20), out, 0x20)\n            // Use \"invalid\" to make gas estimation work\n            switch success case 0 { invalid() }\n        }\n\n        require(success, \"Call to precompiled contract failed\");\n        return out[0] != 0;\n    }\n\n    /*\n     * Structures for group management\n     */ \n    mapping (address => Group) groups;\n\n    struct Group {\n        address owner;\n        uint threshold;\n        G1Element c_0;\n        G1Element c_1;\n        G1Element d_0;\n        G1Element d_1;\n        Party[] parties;\n        bool isInitialized;\n        mapping(bytes => Attempt) attempts;\n        mapping(address => uint) xMapping;\n    }\n\n    struct Attempt {\n        bytes id;\n        Part[] parts;\n        uint[] participatingMembers;\n        G1Element c_0_tilde;\n        G1Element c_1_tilde;\n        G2Element k;\n        bool verified;\n        bool isNotEmpty;\n    }\n\n    struct Part {\n        G1Element c_0_i;\n        G2Element k_i;\n        bool isVerified;\n        uint x;\n        uint exponent;\n    }\n\n    struct Party{\n        address party;\n        G1Element publicKey;\n    }\n\n    event Broadcast(address group, address sender, bytes message);\n\n    event NewGroup(address group, address[] members, uint[2] c_0, uint[2] c_1, uint[2] d_0, uint[2] d_1);\n    event NewQuery(address group, bytes id, uint[2][] c0, uint[2][] c1);\n    event NewQueryNIZKPsP1(address group, bytes id, uint[2][] a1, uint[2][] b1, uint[2][] a2, uint[2][] b2);\n    event NewQueryNIZKPsP2(address group, bytes id, uint[] d_1, uint[] d_2, uint[] r_1, uint[] r_2);\n    event VerifiableAttempt(address group, bytes id);\n    event VerificationResult(address group, bytes id, bool success);\n\n    function createCommittee(address[] memory members, uint threshold, uint[2] memory c_0, uint[2] memory c_1, uint[2] memory d_0, uint[2] memory d_1) public payable {\n        require(!groups[msg.sender].isInitialized, \"Group already exists!\");\n        groups[msg.sender].owner = msg.sender;\n\n        uint i;\n\n        for (i = 0; i<members.length; i++) {\n            Party memory newParty;\n            newParty.party = members[i];\n\n            groups[msg.sender].parties.push(newParty);\n        }\n\n        for (i = 0; i < members.length; i++) {\n            groups[msg.sender].xMapping[members[i]] = i+1;\n        }\n\n        groups[msg.sender].threshold = threshold;\n        groups[msg.sender].isInitialized = true;\n\n        groups[msg.sender].c_0.x  = c_0[0];\n        groups[msg.sender].c_0.y  = c_0[1];\n\n        groups[msg.sender].c_1.x = c_1[0];\n        groups[msg.sender].c_1.y = c_1[1];\n\n        groups[msg.sender].d_0.x  = d_0[0];\n        groups[msg.sender].d_0.y  = d_0[1];\n\n        groups[msg.sender].d_1.x = d_1[0];\n        groups[msg.sender].d_1.y = d_1[1];\n\n        emit NewGroup(msg.sender, members, c_0, c_1, d_0, d_1);\n    }\n\n    // can only be done by the member itself\n    function addKeyForMember(address group, uint[2] memory coeffs) public payable returns (bool) {\n        require(groups[group].isInitialized, \"This group doesn't exist!\");\n\n        for (uint i = 0; i<groups[group].parties.length; i++) {\n            // find party\n            if (groups[group].parties[i].party == msg.sender) {\n                // check if key is already there\n                require(isEmpty(groups[group].parties[i].publicKey) == true, \"A key already exists\");\n                // add key\n                G1Element memory newPublicKey;\n                newPublicKey.x = coeffs[0];\n                newPublicKey.y = coeffs[1];\n                groups[group].parties[i].publicKey = newPublicKey;\n                return true;\n            }\n        }\n\n        return false;\n    }\n\n    function query(bytes memory id, uint[2][] memory c0, uint[2][] memory c1, uint[2] memory c_0_tilde, uint[2] memory c_1_tilde, uint[2][2] memory k) public payable {\n        require(groups[msg.sender].isInitialized, \"This group doesn't exist!\");\n        require(groups[msg.sender].attempts[id].isNotEmpty == false, \"An attempt with this id already exist!\");\n\n        groups[msg.sender].attempts[id].id = id;\n\n        groups[msg.sender].attempts[id].isNotEmpty = true;\n\n        groups[msg.sender].attempts[id].c_0_tilde.x = c_0_tilde[0];\n        groups[msg.sender].attempts[id].c_0_tilde.y = c_0_tilde[1];\n\n        groups[msg.sender].attempts[id].c_1_tilde.x = c_1_tilde[0];\n        groups[msg.sender].attempts[id].c_1_tilde.y = c_1_tilde[1];\n\n        groups[msg.sender].attempts[id].k.coeffs_x = k[0];\n        groups[msg.sender].attempts[id].k.coeffs_y = k[1];\n\n        emit NewQuery(msg.sender, id, c0, c1);\n    }\n\n    function getChallengeForNZIK1(address group, bytes memory id, uint[2] memory a1, uint[2] memory b1, uint[2] memory a2, uint[2] memory b2) public view returns (uint) {\n        bytes32 challengeNZIK1 = sha256(abi.encodePacked(group, id, a1[0], a1[1], a2[0], a2[1], b1[0], b1[1], b2[0], b2[1]));\n        return uint(challengeNZIK1) % curveOrder;\n    }\n\n    function broadcastNIZKP1(address group, bytes memory id, uint[2][] memory a1, uint[2][] memory b1, uint[2][] memory a2, uint[2][] memory b2) public payable {\n        emit NewQueryNIZKPsP1(group, id, a1, b1, a2, b2);\n    }\n\n    function broadcastNIZKP2(address group, bytes memory id, uint[] memory d_1, uint[] memory d_2, uint[] memory r_1, uint[] memory r_2) public payable {\n        emit NewQueryNIZKPsP2(group, id, d_1, d_2, r_1, r_2);\n    }\n\n    function getKScalar(address group, bytes memory id) public view returns (uint scalar) {\n        bytes32 kScalar = sha256(abi.encodePacked(group, id, groups[group].attempts[id].c_1_tilde.x, groups[group].attempts[id].c_1_tilde.y));\n        return uint(kScalar) % curveOrder;\n\n    }\n\n    function addPart(address group, bytes memory id, \n                    uint[2] memory c_0_i, uint[2][2] memory k_i)  public payable {\n        require(groups[group].isInitialized, \"This group doesn't exist!\");\n        require(groups[group].attempts[id].isNotEmpty == true, \"An attempt with this id doesn't exist!\");\n\n        uint xMember = groups[group].xMapping[msg.sender];\n        require(xMember != 0, \"This group doesn't have you as member!\");\n\n        for (uint i = 0; i < groups[group].attempts[id].parts.length; i++) {\n            require(groups[group].attempts[id].parts[i].x != xMember, \"Already added part!\");\n        }\n\n        Part memory newPart;\n        newPart.x = xMember;\n        G1Element memory c_0_i_s;\n        c_0_i_s.x = c_0_i[0];\n        c_0_i_s.y = c_0_i[1];\n        newPart.c_0_i = c_0_i_s;\n\n        G2Element memory k_i_s;\n        k_i_s.coeffs_x = k_i[0];\n        k_i_s.coeffs_y = k_i[1];\n        newPart.k_i = k_i_s;\n\n        groups[group].attempts[id].parts.push(newPart);\n        groups[group].attempts[id].participatingMembers.push(xMember);\n\n        if (groups[group].attempts[id].participatingMembers.length == groups[group].threshold) {\n            emit VerifiableAttempt(group, id);\n        }\n    }\n\n\n    function getChallengeForNZIK2(address group, bytes memory id, uint[2] memory cR, uint[2] memory gR, uint xMember) public view returns (uint) {\n        for (uint i = 0; i < groups[group].attempts[id].parts.length; i++) {\n            if (groups[group].attempts[id].parts[i].x == xMember) {\n                bytes32 challengeNZIK2 = sha256(abi.encodePacked(cR[0], cR[1], gR[0], gR[1], groups[group].attempts[id].c_0_tilde.x, groups[group].attempts[id].c_0_tilde.y));\n                return uint(challengeNZIK2) % curveOrder;\n            }\n        }\n    }\n\n\n    function getPublicKeyForCurrentSender(address group) internal view returns (G1Element memory pKey) {\n        for (uint i = 0; i<groups[group].parties.length; i++) {\n            // find party\n            if (groups[group].parties[i].party == msg.sender) {\n                return groups[group].parties[i].publicKey;\n            }\n        }\n    }\n\n    function verifyNZIK2(address group, bytes memory id, uint[2] memory cR, uint[2] memory gR, uint z) public {\n        require(groups[group].isInitialized, \"This group doesn't exist!\");\n        require(groups[group].attempts[id].isNotEmpty == true, \"An attempt with this id doesn't exist!\");\n\n        uint xMember = groups[group].xMapping[msg.sender];\n        require(xMember != 0, \"This group doesn't have you as member!\");\n\n        for (uint i = 0; i < groups[group].attempts[id].parts.length; i++) {\n            if (groups[group].attempts[id].parts[i].x == xMember) {\n                // check pairing\n                G1Element[] memory pointsG1 = new G1Element[](3);\n\n                uint challenge = getChallengeForNZIK2(group, id, cR, gR, xMember);\n\n                pointsG1[0] = multiply(groups[group].attempts[id].parts[i].c_0_i, challenge);\n\n                G1Element memory c_r;\n                c_r.x = cR[0];\n                c_r.y = cR[1];\n                pointsG1[1] = c_r;\n\n                pointsG1[2] = negate(multiply(groups[group].attempts[id].c_0_tilde, z));\n\n                G2Element[] memory pointsG2 = new G2Element[](3);\n                pointsG2[0] = groups[group].attempts[id].parts[i].k_i;\n                pointsG2[1] = groups[group].attempts[id].k;\n                pointsG2[2] = groups[group].attempts[id].k;\n\n                require(pairing(pointsG1, pointsG2), \"Validation of NZIK2 failed: Pairing\");\n\n                G1Element memory possibleGZ = addInG1(multiply(getPublicKeyForCurrentSender(group), challenge), gR);\n                require(equals(possibleGZ, multiply(getG1(), z)), \"Validation of NZIK2 failed: Pkey\");\n                \n                return;\n            }\n        }\n        return;\n    }\n\n\n    function verdict(bytes memory id) public payable {\n        require(groups[msg.sender].attempts[id].participatingMembers.length >= groups[msg.sender].threshold,\n                \"This attempt doesn't have enough parts yet!\");\n\n        G1Element[] memory elementsG1 = new G1Element[](groups[msg.sender].attempts[id].parts.length + 1);\n        G2Element[] memory elementsG2 = new G2Element[](groups[msg.sender].attempts[id].parts.length + 1);\n\n        // calculate exponents\n        for (uint i = 0; i<groups[msg.sender].attempts[id].parts.length; i++) {\n            uint lagrangeExponent = getLagrange(groups[msg.sender].attempts[id].parts[i].x, groups[msg.sender].attempts[id].participatingMembers);\n            elementsG1[i] = multiply(groups[msg.sender].attempts[id].parts[i].c_0_i, lagrangeExponent);\n\n            elementsG2[i] = groups[msg.sender].attempts[id].parts[i].k_i;\n        }\n\n        elementsG1[groups[msg.sender].attempts[id].parts.length] = negate(groups[msg.sender].attempts[id].c_1_tilde);\n        elementsG2[groups[msg.sender].attempts[id].parts.length] = groups[msg.sender].attempts[id].k;\n\n        // calculation pairing\n        require(pairing(elementsG1, elementsG2), \"Incorrect answer\");\n        return;\n    }\n\n    function broadcast(address group, bytes memory message) public payable {\n        emit Broadcast(group, msg.sender, message);\n    }\n}",
  "sourcePath": "/home/clu/Schreibtisch/security-question/security-question/contract/contracts/SecurityQuestionContract.sol",
  "compiler": {
    "name": "solc",
    "version": "0.6.1+commit.e6f7d5a4.Emscripten.clang"
  },
  "schemaVersion": "3.1.0",
  "updatedAt": "2021-02-22T09:56:00.812Z",
  "networkType": "ethereum",
  "devdoc": {
    "methods": {}
  },
  "userdoc": {
    "methods": {}
  }
}